{
  "contractName": "IOrganization",
  "abi": [
    {
      "anonymous": false,
      "inputs": [
        {
          "indexed": false,
          "name": "name",
          "type": "bytes32"
        }
      ],
      "name": "RoleCreated",
      "type": "event"
    },
    {
      "anonymous": false,
      "inputs": [
        {
          "indexed": false,
          "name": "name",
          "type": "bytes32"
        },
        {
          "indexed": false,
          "name": "repoAddress",
          "type": "address"
        }
      ],
      "name": "RepoCreated",
      "type": "event"
    },
    {
      "anonymous": false,
      "inputs": [
        {
          "indexed": false,
          "name": "commitHashe",
          "type": "bytes32"
        }
      ],
      "name": "Commit",
      "type": "event"
    },
    {
      "anonymous": false,
      "inputs": [
        {
          "indexed": false,
          "name": "tag",
          "type": "bytes32"
        }
      ],
      "name": "Release",
      "type": "event"
    },
    {
      "constant": true,
      "inputs": [
        {
          "name": "role",
          "type": "bytes32"
        }
      ],
      "name": "getRole",
      "outputs": [
        {
          "name": "create",
          "type": "bool"
        },
        {
          "name": "release",
          "type": "bool"
        },
        {
          "name": "commit",
          "type": "bool"
        },
        {
          "name": "merge",
          "type": "bool"
        }
      ],
      "payable": false,
      "stateMutability": "view",
      "type": "function"
    },
    {
      "constant": true,
      "inputs": [
        {
          "name": "name",
          "type": "bytes32"
        }
      ],
      "name": "getRepo",
      "outputs": [
        {
          "name": "repo",
          "type": "address"
        }
      ],
      "payable": false,
      "stateMutability": "view",
      "type": "function"
    },
    {
      "constant": true,
      "inputs": [],
      "name": "listRepos",
      "outputs": [
        {
          "name": "names",
          "type": "bytes32[]"
        }
      ],
      "payable": false,
      "stateMutability": "view",
      "type": "function"
    },
    {
      "constant": true,
      "inputs": [
        {
          "name": "member",
          "type": "address"
        }
      ],
      "name": "getMemberRole",
      "outputs": [
        {
          "name": "role",
          "type": "bytes32"
        }
      ],
      "payable": false,
      "stateMutability": "view",
      "type": "function"
    },
    {
      "constant": false,
      "inputs": [
        {
          "name": "role",
          "type": "bytes32"
        },
        {
          "name": "create",
          "type": "bool"
        },
        {
          "name": "release",
          "type": "bool"
        },
        {
          "name": "commit",
          "type": "bool"
        },
        {
          "name": "merge",
          "type": "bool"
        }
      ],
      "name": "createRole",
      "outputs": [],
      "payable": false,
      "stateMutability": "nonpayable",
      "type": "function"
    },
    {
      "constant": false,
      "inputs": [
        {
          "name": "member",
          "type": "address"
        },
        {
          "name": "role",
          "type": "bytes32"
        }
      ],
      "name": "assignRole",
      "outputs": [],
      "payable": false,
      "stateMutability": "nonpayable",
      "type": "function"
    },
    {
      "constant": false,
      "inputs": [
        {
          "name": "name",
          "type": "bytes32"
        }
      ],
      "name": "createRepo",
      "outputs": [],
      "payable": false,
      "stateMutability": "nonpayable",
      "type": "function"
    },
    {
      "constant": false,
      "inputs": [
        {
          "name": "commitHash",
          "type": "bytes32"
        },
        {
          "name": "ipfsHash",
          "type": "string"
        },
        {
          "name": "repo",
          "type": "address"
        },
        {
          "name": "branch",
          "type": "bytes32"
        }
      ],
      "name": "commit",
      "outputs": [],
      "payable": false,
      "stateMutability": "nonpayable",
      "type": "function"
    },
    {
      "constant": false,
      "inputs": [
        {
          "name": "tag",
          "type": "bytes32"
        },
        {
          "name": "commitHash",
          "type": "bytes32"
        },
        {
          "name": "repo",
          "type": "address"
        }
      ],
      "name": "tagRelease",
      "outputs": [],
      "payable": false,
      "stateMutability": "nonpayable",
      "type": "function"
    }
  ],
  "bytecode": "0x6060604052341561000f57600080fd5b61044c8061001e6000396000f300606060405260043610610099576000357c0100000000000000000000000000000000000000000000000000000000900463ffffffff1680631d9486de1461009e5780633a215537146100e45780634ba2351b1461014b5780634e2186ca1461019e57806369639749146102085780636e8eb7bc1461025d578063939fc785146102bd578063c3b042fb14610353578063cafede22146103a6575b600080fd5b34156100a957600080fd5b6100e2600480803573ffffffffffffffffffffffffffffffffffffffff16906020019091908035600019169060200190919050506103cd565b005b34156100ef57600080fd5b6101096004808035600019169060200190919050506103d1565b604051808273ffffffffffffffffffffffffffffffffffffffff1673ffffffffffffffffffffffffffffffffffffffff16815260200191505060405180910390f35b341561015657600080fd5b61019c6004808035600019169060200190919080356000191690602001909190803573ffffffffffffffffffffffffffffffffffffffff169060200190919050506103d8565b005b34156101a957600080fd5b6101b16103dd565b6040518080602001828103825283818151815260200191508051906020019060200280838360005b838110156101f45780820151818401526020810190506101d9565b505050509050019250505060405180910390f35b341561021357600080fd5b61023f600480803573ffffffffffffffffffffffffffffffffffffffff169060200190919050506103e8565b60405180826000191660001916815260200191505060405180910390f35b341561026857600080fd5b6102826004808035600019169060200190919050506103ef565b604051808515151515815260200184151515158152602001831515151581526020018215151515815260200194505050505060405180910390f35b34156102c857600080fd5b61035160048080356000191690602001909190803590602001908201803590602001908080601f0160208091040260200160405190810160405280939291908181526020018383808284378201915050505050509190803573ffffffffffffffffffffffffffffffffffffffff16906020019091908035600019169060200190919050506103fc565b005b341561035e57600080fd5b6103a46004808035600019169060200190919080351515906020019091908035151590602001909190803515159060200190919080351515906020019091905050610402565b005b34156103b157600080fd5b6103cb600480803560001916906020019091905050610409565b005b5050565b6000919050565b505050565b6103e561040c565b90565b6000919050565b6000806000809193509193565b50505050565b5050505050565b50565b6020604051908101604052806000815250905600a165627a7a7230582084b1578f47fe1bb8c8cbae6b3d89319c69598e5dc94cdcf467fc3dbec743d7a40029",
  "source": "pragma solidity ^0.4.12;\n\ncontract IOrganization {\n    event RoleCreated(bytes32 name);\n    event RepoCreated(bytes32 name, address repoAddress);\n    event Commit(bytes32 commitHashe);\n    event Release(bytes32 tag);\n\n    function getRole (bytes32 role) public view returns (bool create, bool release, bool commit, bool merge) {}\n    function getRepo (bytes32 name) public view returns (address repo) {}\n    function listRepos () public view returns (bytes32[] names) {}\n    function getMemberRole(address member) public view returns (bytes32 role) {}\n    function createRole (bytes32 role, bool create, bool release, bool commit, bool merge) external {}\n    function assignRole (address member, bytes32 role) external {}\n    function createRepo (bytes32 name) external {}\n    function commit (bytes32 commitHash, string ipfsHash, address repo, bytes32 branch) public {}\n    function tagRelease (bytes32 tag, bytes32 commitHash, address repo) public {}\n}",
  "sourcePath": "/Users/ngmiller/code/ethdenver/GitMesh.contracts/contracts/IOrganization.sol",
  "compiler": {
    "name": "solc",
    "version": "0.4.19+commit.c4cbbb05.Emscripten.clang"
  },
  "schemaVersion": "1.0.1",
  "updatedAt": "2018-02-18T12:21:17.392Z"
}