{
  "contractName": "IRepo",
  "abi": [
    {
      "constant": true,
      "inputs": [
        {
          "name": "tag",
          "type": "bytes32"
        }
      ],
      "name": "getRelease",
      "outputs": [
        {
          "name": "commitHash",
          "type": "bytes32"
        }
      ],
      "payable": false,
      "stateMutability": "view",
      "type": "function"
    },
    {
      "constant": true,
      "inputs": [
        {
          "name": "branch",
          "type": "bytes32"
        }
      ],
      "name": "getCommitHashes",
      "outputs": [
        {
          "name": "_commitHashes",
          "type": "bytes32[]"
        }
      ],
      "payable": false,
      "stateMutability": "view",
      "type": "function"
    },
    {
      "constant": true,
      "inputs": [],
      "name": "getTags",
      "outputs": [
        {
          "name": "_tags",
          "type": "bytes32[]"
        }
      ],
      "payable": false,
      "stateMutability": "view",
      "type": "function"
    }
  ],
  "bytecode": "0x6060604052341561000f57600080fd5b6101e48061001e6000396000f300606060405260043610610057576000357c0100000000000000000000000000000000000000000000000000000000900463ffffffff1680637f698e921461005c578063995d9ab71461009f578063cc5b0a1514610109575b600080fd5b341561006757600080fd5b610081600480803560001916906020019091905050610185565b60405180826000191660001916815260200191505060405180910390f35b34156100aa57600080fd5b6100b261018c565b6040518080602001828103825283818151815260200191508051906020019060200280838360005b838110156100f55780820151818401526020810190506100da565b505050509050019250505060405180910390f35b341561011457600080fd5b61012e600480803560001916906020019091905050610197565b6040518080602001828103825283818151815260200191508051906020019060200280838360005b83811015610171578082015181840152602081019050610156565b505050509050019250505060405180910390f35b6000919050565b6101946101a4565b90565b61019f6101a4565b919050565b6020604051908101604052806000815250905600a165627a7a723058206348fd7c471c99912b440f2829683d9dd81bbc9d7c4e3ed7044e45081fd8e7550029",
  "source": "pragma solidity ^0.4.12;\n\ncontract IRepo {\n    function getRelease (bytes32 tag) public view returns (bytes32 commitHash) {}\n    function getCommitHashes (bytes32 branch) public view returns (bytes32[] _commitHashes) {}\n    function getTags () public view returns (bytes32[] _tags) {}\n}",
  "sourcePath": "/Users/leondo/Desktop/GitMesh.contracts/contracts/IRepo.sol",
  "compiler": {
    "name": "solc",
    "version": "0.4.19+commit.c4cbbb05.Emscripten.clang"
  },
  "schemaVersion": "1.0.1",
  "updatedAt": "2018-02-18T08:37:36.713Z"
}