{
  "contractName": "Organization",
  "abi": [
    {
      "constant": false,
      "inputs": [
        {
          "name": "member",
          "type": "address"
        },
        {
          "name": "role",
          "type": "bytes32"
        }
      ],
      "name": "assignRole",
      "outputs": [],
      "payable": false,
      "stateMutability": "nonpayable",
      "type": "function"
    },
    {
      "constant": true,
      "inputs": [
        {
          "name": "name",
          "type": "bytes32"
        }
      ],
      "name": "getRepo",
      "outputs": [
        {
          "name": "repo",
          "type": "address"
        }
      ],
      "payable": false,
      "stateMutability": "view",
      "type": "function"
    },
    {
      "constant": false,
      "inputs": [
        {
          "name": "tag",
          "type": "bytes32"
        },
        {
          "name": "commitHash",
          "type": "bytes32"
        },
        {
          "name": "repo",
          "type": "address"
        }
      ],
      "name": "tagRelease",
      "outputs": [],
      "payable": false,
      "stateMutability": "nonpayable",
      "type": "function"
    },
    {
      "constant": true,
      "inputs": [],
      "name": "listRepos",
      "outputs": [
        {
          "name": "names",
          "type": "bytes32[]"
        }
      ],
      "payable": false,
      "stateMutability": "view",
      "type": "function"
    },
    {
      "constant": true,
      "inputs": [
        {
          "name": "repo",
          "type": "address"
        },
        {
          "name": "tag",
          "type": "bytes32"
        }
      ],
      "name": "getRelease",
      "outputs": [
        {
          "name": "commitHash",
          "type": "bytes32"
        }
      ],
      "payable": false,
      "stateMutability": "view",
      "type": "function"
    },
    {
      "constant": true,
      "inputs": [
        {
          "name": "role",
          "type": "bytes32"
        }
      ],
      "name": "getRole",
      "outputs": [
        {
          "name": "create",
          "type": "bool"
        },
        {
          "name": "release",
          "type": "bool"
        },
        {
          "name": "commit",
          "type": "bool"
        },
        {
          "name": "merge",
          "type": "bool"
        }
      ],
      "payable": false,
      "stateMutability": "view",
      "type": "function"
    },
    {
      "constant": true,
      "inputs": [],
      "name": "owner",
      "outputs": [
        {
          "name": "",
          "type": "address"
        }
      ],
      "payable": false,
      "stateMutability": "view",
      "type": "function"
    },
    {
      "constant": false,
      "inputs": [
        {
          "name": "commitHash",
          "type": "bytes32"
        },
        {
          "name": "ipfsHash",
          "type": "string"
        },
        {
          "name": "repo",
          "type": "address"
        },
        {
          "name": "branch",
          "type": "bytes32"
        }
      ],
      "name": "commit",
      "outputs": [],
      "payable": false,
      "stateMutability": "nonpayable",
      "type": "function"
    },
    {
      "constant": false,
      "inputs": [
        {
          "name": "role",
          "type": "bytes32"
        },
        {
          "name": "create",
          "type": "bool"
        },
        {
          "name": "release",
          "type": "bool"
        },
        {
          "name": "commit",
          "type": "bool"
        },
        {
          "name": "merge",
          "type": "bool"
        }
      ],
      "name": "createRole",
      "outputs": [],
      "payable": false,
      "stateMutability": "nonpayable",
      "type": "function"
    },
    {
      "constant": false,
      "inputs": [
        {
          "name": "name",
          "type": "bytes32"
        }
      ],
      "name": "createRepo",
      "outputs": [],
      "payable": false,
      "stateMutability": "nonpayable",
      "type": "function"
    },
    {
      "inputs": [],
      "payable": false,
      "stateMutability": "nonpayable",
      "type": "constructor"
    }
  ],
  "bytecode": "0x6060604052341561000f57600080fd5b336000806101000a81548173ffffffffffffffffffffffffffffffffffffffff021916908373ffffffffffffffffffffffffffffffffffffffff1602179055506117758061005e6000396000f3006060604052600436106100a4576000357c0100000000000000000000000000000000000000000000000000000000900463ffffffff1680631d9486de146100a95780633a215537146100ef5780634ba2351b146101565780634e2186ca146101a95780636b90e39d146102135780636e8eb7bc146102755780638da5cb5b146102d5578063939fc7851461032a578063c3b042fb146103c0578063cafede2214610413575b600080fd5b34156100b457600080fd5b6100ed600480803573ffffffffffffffffffffffffffffffffffffffff169060200190919080356000191690602001909190505061043a565b005b34156100fa57600080fd5b610114600480803560001916906020019091905050610513565b604051808273ffffffffffffffffffffffffffffffffffffffff1673ffffffffffffffffffffffffffffffffffffffff16815260200191505060405180910390f35b341561016157600080fd5b6101a76004808035600019169060200190919080356000191690602001909190803573ffffffffffffffffffffffffffffffffffffffff16906020019091905050610558565b005b34156101b457600080fd5b6101bc6106f3565b6040518080602001828103825283818151815260200191508051906020019060200280838360005b838110156101ff5780820151818401526020810190506101e4565b505050509050019250505060405180910390f35b341561021e57600080fd5b610257600480803573ffffffffffffffffffffffffffffffffffffffff1690602001909190803560001916906020019091905050610755565b60405180826000191660001916815260200191505060405180910390f35b341561028057600080fd5b61029a6004808035600019169060200190919050506107f9565b604051808515151515815260200184151515158152602001831515151581526020018215151515815260200194505050505060405180910390f35b34156102e057600080fd5b6102e86108d2565b604051808273ffffffffffffffffffffffffffffffffffffffff1673ffffffffffffffffffffffffffffffffffffffff16815260200191505060405180910390f35b341561033557600080fd5b6103be60048080356000191690602001909190803590602001908201803590602001908080601f0160208091040260200160405190810160405280939291908181526020018383808284378201915050505050509190803573ffffffffffffffffffffffffffffffffffffffff16906020019091908035600019169060200190919050506108f7565b005b34156103cb57600080fd5b6104116004808035600019169060200190919080351515906020019091908035151590602001909190803515159060200190919080351515906020019091905050610b34565b005b341561041e57600080fd5b610438600480803560001916906020019091905050610c78565b005b6000809054906101000a900473ffffffffffffffffffffffffffffffffffffffff1673ffffffffffffffffffffffffffffffffffffffff163373ffffffffffffffffffffffffffffffffffffffff1614151561049557600080fd5b60006001026001600083600019166000191681526020019081526020016000206000015460001916141515156104c757fe5b80600260008473ffffffffffffffffffffffffffffffffffffffff1673ffffffffffffffffffffffffffffffffffffffff16815260200190815260200160002081600019169055505050565b600060036000836000191660001916815260200190815260200160002060009054906101000a900473ffffffffffffffffffffffffffffffffffffffff169050919050565b610560610e7a565b60016000600260003373ffffffffffffffffffffffffffffffffffffffff1673ffffffffffffffffffffffffffffffffffffffff168152602001908152602001600020546000191660001916815260200190815260200160002060a060405190810160405290816000820154600019166000191681526020016001820160009054906101000a900460ff161515151581526020016001820160019054906101000a900460ff161515151581526020016001820160029054906101000a900460ff161515151581526020016001820160039054906101000a900460ff16151515158152505090508060400151151561065357fe5b8173ffffffffffffffffffffffffffffffffffffffff1663f4e7732e85856040518363ffffffff167c0100000000000000000000000000000000000000000000000000000000028152600401808360001916600019168152602001826000191660001916815260200192505050600060405180830381600087803b15156106d957600080fd5b6102c65a03f115156106ea57600080fd5b50505050505050565b6106fb610eb5565b600480548060200260200160405190810160405280929190818152602001828054801561074b57602002820191906000526020600020905b81546000191681526020019060010190808311610733575b5050505050905090565b60008273ffffffffffffffffffffffffffffffffffffffff1663f491a84c836000604051602001526040518263ffffffff167c0100000000000000000000000000000000000000000000000000000000028152600401808260001916600019168152602001915050602060405180830381600087803b15156107d657600080fd5b6102c65a03f115156107e757600080fd5b50505060405180519050905092915050565b600080600080610807610e7a565b60016000876000191660001916815260200190815260200160002060a060405190810160405290816000820154600019166000191681526020016001820160009054906101000a900460ff161515151581526020016001820160019054906101000a900460ff161515151581526020016001820160029054906101000a900460ff161515151581526020016001820160039054906101000a900460ff161515151581525050905080602001518160400151826060015183608001519450945094509450509193509193565b6000809054906101000a900473ffffffffffffffffffffffffffffffffffffffff1681565b6108ff610e7a565b60016000600260003373ffffffffffffffffffffffffffffffffffffffff1673ffffffffffffffffffffffffffffffffffffffff168152602001908152602001600020546000191660001916815260200190815260200160002060a060405190810160405290816000820154600019166000191681526020016001820160009054906101000a900460ff161515151581526020016001820160019054906101000a900460ff161515151581526020016001820160029054906101000a900460ff161515151581526020016001820160039054906101000a900460ff1615151515815250509050806060015115156109f257fe5b8273ffffffffffffffffffffffffffffffffffffffff1663273040c1868685336040518563ffffffff167c01000000000000000000000000000000000000000000000000000000000281526004018085600019166000191681526020018060200184600019166000191681526020018373ffffffffffffffffffffffffffffffffffffffff1673ffffffffffffffffffffffffffffffffffffffff168152602001828103825285818151815260200191508051906020019080838360005b83811015610acb578082015181840152602081019050610ab0565b50505050905090810190601f168015610af85780820380516001836020036101000a031916815260200191505b5095505050505050600060405180830381600087803b1515610b1957600080fd5b6102c65a03f11515610b2a57600080fd5b5050505050505050565b6000809054906101000a900473ffffffffffffffffffffffffffffffffffffffff1673ffffffffffffffffffffffffffffffffffffffff163373ffffffffffffffffffffffffffffffffffffffff16141515610b8f57600080fd5b60a060405190810160405280866000191681526020018515158152602001841515815260200183151581526020018215158152506001600087600019166000191681526020019081526020016000206000820151816000019060001916905560208201518160010160006101000a81548160ff02191690831515021790555060408201518160010160016101000a81548160ff02191690831515021790555060608201518160010160026101000a81548160ff02191690831515021790555060808201518160010160036101000a81548160ff0219169083151502179055509050505050505050565b610c80610e7a565b60016000600260003373ffffffffffffffffffffffffffffffffffffffff1673ffffffffffffffffffffffffffffffffffffffff168152602001908152602001600020546000191660001916815260200190815260200160002060a060405190810160405290816000820154600019166000191681526020016001820160009054906101000a900460ff161515151581526020016001820160019054906101000a900460ff161515151581526020016001820160029054906101000a900460ff161515151581526020016001820160039054906101000a900460ff161515151581525050905080602001511515610d7357fe5b600060036000846000191660001916815260200190815260200160002060009054906101000a900473ffffffffffffffffffffffffffffffffffffffff1673ffffffffffffffffffffffffffffffffffffffff16141515610dd057fe5b610dd8610ec9565b604051809103906000f0801515610dee57600080fd5b60036000846000191660001916815260200190815260200160002060006101000a81548173ffffffffffffffffffffffffffffffffffffffff021916908373ffffffffffffffffffffffffffffffffffffffff16021790555060048054806001018281610e5b9190610ed9565b9160005260206000209001600084909190915090600019169055505050565b60a060405190810160405280600080191681526020016000151581526020016000151581526020016000151581526020016000151581525090565b602060405190810160405280600081525090565b60405161081f80610f2b83390190565b815481835581811511610f0057818360005260206000209182019101610eff9190610f05565b5b505050565b610f2791905b80821115610f23576000816000905550600101610f0b565b5090565b9056006060604052341561000f57600080fd5b336000806101000a81548173ffffffffffffffffffffffffffffffffffffffff021916908373ffffffffffffffffffffffffffffffffffffffff1602179055506107c18061005e6000396000f300606060405260043610610078576000357c0100000000000000000000000000000000000000000000000000000000900463ffffffff16806323bd4d7a1461007d578063273040c1146100d257806347885781146101685780636cf2678a1461026e578063f491a84c146102ba578063f4e7732e146102fd575b600080fd5b341561008857600080fd5b610090610331565b604051808273ffffffffffffffffffffffffffffffffffffffff1673ffffffffffffffffffffffffffffffffffffffff16815260200191505060405180910390f35b34156100dd57600080fd5b61016660048080356000191690602001909190803590602001908201803590602001908080601f016020809104026020016040519081016040528093929190818152602001838380828437820191505050505050919080356000191690602001909190803573ffffffffffffffffffffffffffffffffffffffff16906020019091905050610356565b005b341561017357600080fd5b61018d600480803560001916906020019091905050610559565b604051808560001916600019168152602001806020018473ffffffffffffffffffffffffffffffffffffffff1673ffffffffffffffffffffffffffffffffffffffff16815260200183815260200182810382528581815460018160011615610100020316600290048152602001915080546001816001161561010002031660029004801561025c5780601f106102315761010080835404028352916020019161025c565b820191906000526020600020905b81548152906001019060200180831161023f57829003601f168201915b50509550505050505060405180910390f35b341561027957600080fd5b61029c6004808035600019169060200190919080359060200190919050506105a8565b60405180826000191660001916815260200191505060405180910390f35b34156102c557600080fd5b6102df6004808035600019169060200190919050506105d9565b60405180826000191660001916815260200191505060405180910390f35b341561030857600080fd5b61032f600480803560001916906020019091908035600019169060200190919050506105f1565b005b6000809054906101000a900473ffffffffffffffffffffffffffffffffffffffff1681565b60008060009054906101000a900473ffffffffffffffffffffffffffffffffffffffff1673ffffffffffffffffffffffffffffffffffffffff163373ffffffffffffffffffffffffffffffffffffffff161415156103b357600080fd5b600090505b600160008460001916600019168152602001908152602001600020805490508110156104325784600019166001600085600019166000191681526020019081526020016000208281548110151561040b57fe5b906000526020600020900154600019161415151561042557fe5b80806001019150506103b8565b600160008460001916600019168152602001908152602001600020805480600101828161045f919061069f565b916000526020600020900160008790919091509060001916905550608060405190810160405280866000191681526020018581526020018373ffffffffffffffffffffffffffffffffffffffff168152602001428152506002600087600019166000191681526020019081526020016000206000820151816000019060001916905560208201518160010190805190602001906104fd9291906106cb565b5060408201518160020160006101000a81548173ffffffffffffffffffffffffffffffffffffffff021916908373ffffffffffffffffffffffffffffffffffffffff160217905550606082015181600301559050505050505050565b600260205280600052604060002060009150905080600001549080600101908060020160009054906101000a900473ffffffffffffffffffffffffffffffffffffffff16908060030154905084565b6001602052816000526040600020818154811015156105c357fe5b9060005260206000209001600091509150505481565b60036020528060005260406000206000915090505481565b6000809054906101000a900473ffffffffffffffffffffffffffffffffffffffff1673ffffffffffffffffffffffffffffffffffffffff163373ffffffffffffffffffffffffffffffffffffffff1614151561064c57600080fd5b6000600260008360001916600019168152602001908152602001600020600301541415151561067757fe5b8060036000846000191660001916815260200190815260200160002081600019169055505050565b8154818355818115116106c6578183600052602060002091820191016106c5919061074b565b5b505050565b828054600181600116156101000203166002900490600052602060002090601f016020900481019282601f1061070c57805160ff191683800117855561073a565b8280016001018555821561073a579182015b8281111561073957825182559160200191906001019061071e565b5b5090506107479190610770565b5090565b61076d91905b80821115610769576000816000905550600101610751565b5090565b90565b61079291905b8082111561078e576000816000905550600101610776565b5090565b905600a165627a7a72305820f9c9cdec4885956e371c8d1068f472efaedea8f38514a27dc81d54d829f64ee10029a165627a7a7230582007de11897c682f325e657456f9d3759c2900975c1d1e1647e630ebac53aee6360029",
  "source": "pragma solidity ^0.4.12;\n\nimport \"./Repo.sol\";\n\ncontract Organization {\n    // ----------------------------------------------\n    // ---------------- Globals ---------------------\n    // ----------------------------------------------\n\n    address public owner;\n\n    // Permissions role\n    struct Role {\n        bytes32 name;\n        bool create;\n        bool release;\n        bool commit;\n        bool merge;\n    }\n\n    // Available roles in the system\n    mapping(bytes32 => Role) roles;\n    // Assigned roles to the members\n    mapping(address => bytes32) members;\n    \n    // Repo tracking\n    mapping(bytes32 => address) repos;\n    bytes32[] repoNames;\n\n    modifier onlyOwner {\n        require(msg.sender == owner);\n        _;\n    }\n\n    function Organization () public {\n        owner = msg.sender;\n    }\n\n    // ----------------------------------------------   \n    // ------------ Getter Functions ----------------\n    // ----------------------------------------------\n\n    function getRole (bytes32 role) public view returns (bool create, bool release, bool commit, bool merge) {\n        Role memory r = roles[role];\n\n        return (\n            r.create,\n            r.release,\n            r.commit,\n            r.merge\n        );\n    }\n\n    // Get a repo address by name\n    function getRepo (bytes32 name) public view returns (address repo) {\n        return repos[name];\n    }\n\n    // Get a list of repo names\n    function listRepos () public view returns (bytes32[] names) {\n        return repoNames;\n    }\n\n    // Get a release by tag\n    function getRelease (address repo, bytes32 tag) public view returns (bytes32 commitHash) {\n        return Repo(repo).releases(tag);\n    }\n\n    // ----------------------------------------------   \n    // ------------ Public Functions ----------------\n    // ----------------------------------------------\n\n    // Add or update a role\n    function createRole (bytes32 role, bool create, bool release, bool commit, bool merge) external onlyOwner {\n        roles[role] = Role({\n            name: role,\n            create: create,\n            release: release,\n            commit: commit,\n            merge: merge\n        });\n    }\n\n    // Assign a role to a user\n    function assignRole (address member, bytes32 role) external onlyOwner {\n        assert(roles[role].name != 0x0);\n\n        members[member] = role;\n    }\n\n    // Add a new repo to the org\n    function createRepo (bytes32 name) external {\n        Role memory senderRole = roles[members[msg.sender]];\n\n        assert(senderRole.create);\n        assert(repos[name] == 0x0);\n\n        repos[name] = new Repo();\n        repoNames.push(name);\n    }\n\n    // Make a commit (proxied through for permissions)\n    function commit (bytes32 commitHash, string ipfsHash, address repo, bytes32 branch) public {\n        Role memory senderRole = roles[members[msg.sender]];\n\n        assert(senderRole.commit);\n    \n        Repo(repo).commit(commitHash, ipfsHash, branch, msg.sender);\n    }\n\n    // Tag a release to a specific commit hash (proxied through for permissions)\n    function tagRelease (bytes32 tag, bytes32 commitHash, address repo) public {\n        Role memory senderRole = roles[members[msg.sender]];\n\n        assert(senderRole.release);\n\n        Repo(repo).tagRelease(tag, commitHash);\n    }\n}",
  "sourcePath": "/Users/matt/Documents/ETHDenver/GitMesh.contracts/contracts/Organization.sol",
  "compiler": {
    "name": "solc",
    "version": "0.4.18+commit.9cf6e910.Emscripten.clang"
  },
  "schemaVersion": "1.0.1",
  "updatedAt": "2018-02-17T06:26:27.408Z"
}