{
  "contractName": "Organization",
  "abi": [
    {
      "constant": true,
      "inputs": [],
      "name": "owner",
      "outputs": [
        {
          "name": "",
          "type": "address"
        }
      ],
      "payable": false,
      "stateMutability": "view",
      "type": "function"
    },
    {
      "inputs": [],
      "payable": false,
      "stateMutability": "nonpayable",
      "type": "constructor"
    },
    {
      "anonymous": false,
      "inputs": [
        {
          "indexed": false,
          "name": "name",
          "type": "bytes32"
        }
      ],
      "name": "RoleCreated",
      "type": "event"
    },
    {
      "anonymous": false,
      "inputs": [
        {
          "indexed": false,
          "name": "name",
          "type": "bytes32"
        },
        {
          "indexed": false,
          "name": "repoAddress",
          "type": "address"
        }
      ],
      "name": "RepoCreated",
      "type": "event"
    },
    {
      "anonymous": false,
      "inputs": [
        {
          "indexed": false,
          "name": "commitHashe",
          "type": "bytes32"
        }
      ],
      "name": "Commit",
      "type": "event"
    },
    {
      "anonymous": false,
      "inputs": [
        {
          "indexed": false,
          "name": "tag",
          "type": "bytes32"
        }
      ],
      "name": "Release",
      "type": "event"
    },
    {
      "constant": true,
      "inputs": [
        {
          "name": "member",
          "type": "address"
        }
      ],
      "name": "getMemberRole",
      "outputs": [
        {
          "name": "role",
          "type": "bytes32"
        }
      ],
      "payable": false,
      "stateMutability": "view",
      "type": "function"
    },
    {
      "constant": true,
      "inputs": [
        {
          "name": "role",
          "type": "bytes32"
        }
      ],
      "name": "getRole",
      "outputs": [
        {
          "name": "create",
          "type": "bool"
        },
        {
          "name": "release",
          "type": "bool"
        },
        {
          "name": "commit",
          "type": "bool"
        },
        {
          "name": "merge",
          "type": "bool"
        }
      ],
      "payable": false,
      "stateMutability": "view",
      "type": "function"
    },
    {
      "constant": true,
      "inputs": [
        {
          "name": "name",
          "type": "bytes32"
        }
      ],
      "name": "getRepo",
      "outputs": [
        {
          "name": "repo",
          "type": "address"
        }
      ],
      "payable": false,
      "stateMutability": "view",
      "type": "function"
    },
    {
      "constant": true,
      "inputs": [],
      "name": "listRepos",
      "outputs": [
        {
          "name": "names",
          "type": "bytes32[]"
        }
      ],
      "payable": false,
      "stateMutability": "view",
      "type": "function"
    },
    {
      "constant": false,
      "inputs": [
        {
          "name": "role",
          "type": "bytes32"
        },
        {
          "name": "create",
          "type": "bool"
        },
        {
          "name": "release",
          "type": "bool"
        },
        {
          "name": "commit",
          "type": "bool"
        },
        {
          "name": "merge",
          "type": "bool"
        }
      ],
      "name": "createRole",
      "outputs": [],
      "payable": false,
      "stateMutability": "nonpayable",
      "type": "function"
    },
    {
      "constant": false,
      "inputs": [
        {
          "name": "member",
          "type": "address"
        },
        {
          "name": "role",
          "type": "bytes32"
        }
      ],
      "name": "assignRole",
      "outputs": [],
      "payable": false,
      "stateMutability": "nonpayable",
      "type": "function"
    },
    {
      "constant": false,
      "inputs": [
        {
          "name": "name",
          "type": "bytes32"
        }
      ],
      "name": "createRepo",
      "outputs": [],
      "payable": false,
      "stateMutability": "nonpayable",
      "type": "function"
    },
    {
      "constant": false,
      "inputs": [
        {
          "name": "commitHash",
          "type": "bytes32"
        },
        {
          "name": "ipfsHash",
          "type": "string"
        },
        {
          "name": "repoName",
          "type": "bytes32"
        },
        {
          "name": "branch",
          "type": "bytes32"
        }
      ],
      "name": "commit",
      "outputs": [],
      "payable": false,
      "stateMutability": "nonpayable",
      "type": "function"
    },
    {
      "constant": false,
      "inputs": [
        {
          "name": "tag",
          "type": "bytes32"
        },
        {
          "name": "commitHash",
          "type": "bytes32"
        },
        {
          "name": "repo",
          "type": "address"
        }
      ],
      "name": "tagRelease",
      "outputs": [],
      "payable": false,
      "stateMutability": "nonpayable",
      "type": "function"
    }
  ],
  "bytecode": "0x6060604052341561000f57600080fd5b336000806101000a81548173ffffffffffffffffffffffffffffffffffffffff021916908373ffffffffffffffffffffffffffffffffffffffff160217905550611b888061005e6000396000f3006060604052600436106100a4576000357c0100000000000000000000000000000000000000000000000000000000900463ffffffff1680631d9486de146100a95780633a215537146100ef5780634a284a4f146101565780634ba2351b146101da5780634e2186ca1461022d57806369639749146102975780636e8eb7bc146102ec5780638da5cb5b1461034c578063c3b042fb146103a1578063cafede22146103f4575b600080fd5b34156100b457600080fd5b6100ed600480803573ffffffffffffffffffffffffffffffffffffffff169060200190919080356000191690602001909190505061041b565b005b34156100fa57600080fd5b6101146004808035600019169060200190919050506104f4565b604051808273ffffffffffffffffffffffffffffffffffffffff1673ffffffffffffffffffffffffffffffffffffffff16815260200191505060405180910390f35b341561016157600080fd5b6101d860048080356000191690602001909190803590602001908201803590602001908080601f016020809104026020016040519081016040528093929190818152602001838380828437820191505050505050919080356000191690602001909190803560001916906020019091905050610539565b005b34156101e557600080fd5b61022b6004808035600019169060200190919080356000191690602001909190803573ffffffffffffffffffffffffffffffffffffffff169060200190919050506107f6565b005b341561023857600080fd5b6102406109d0565b6040518080602001828103825283818151815260200191508051906020019060200280838360005b83811015610283578082015181840152602081019050610268565b505050509050019250505060405180910390f35b34156102a257600080fd5b6102ce600480803573ffffffffffffffffffffffffffffffffffffffff16906020019091905050610a32565b60405180826000191660001916815260200191505060405180910390f35b34156102f757600080fd5b610311600480803560001916906020019091905050610a7b565b604051808515151515815260200184151515158152602001831515151581526020018215151515815260200194505050505060405180910390f35b341561035757600080fd5b61035f610b54565b604051808273ffffffffffffffffffffffffffffffffffffffff1673ffffffffffffffffffffffffffffffffffffffff16815260200191505060405180910390f35b34156103ac57600080fd5b6103f26004808035600019169060200190919080351515906020019091908035151590602001909190803515159060200190919080351515906020019091905050610b79565b005b34156103ff57600080fd5b610419600480803560001916906020019091905050610cfc565b005b6000809054906101000a900473ffffffffffffffffffffffffffffffffffffffff1673ffffffffffffffffffffffffffffffffffffffff163373ffffffffffffffffffffffffffffffffffffffff1614151561047657600080fd5b60006001026001600083600019166000191681526020019081526020016000206000015460001916141515156104a857fe5b80600260008473ffffffffffffffffffffffffffffffffffffffff1673ffffffffffffffffffffffffffffffffffffffff16815260200190815260200160002081600019169055505050565b600060036000836000191660001916815260200190815260200160002060009054906101000a900473ffffffffffffffffffffffffffffffffffffffff169050919050565b610541610fac565b600060016000600260003373ffffffffffffffffffffffffffffffffffffffff1673ffffffffffffffffffffffffffffffffffffffff168152602001908152602001600020546000191660001916815260200190815260200160002060a060405190810160405290816000820154600019166000191681526020016001820160009054906101000a900460ff161515151581526020016001820160019054906101000a900460ff161515151581526020016001820160029054906101000a900460ff161515151581526020016001820160039054906101000a900460ff16151515158152505091508160600151151561063657fe5b60036000856000191660001916815260200190815260200160002060009054906101000a900473ffffffffffffffffffffffffffffffffffffffff1690508073ffffffffffffffffffffffffffffffffffffffff1663273040c1878786336040518563ffffffff167c01000000000000000000000000000000000000000000000000000000000281526004018085600019166000191681526020018060200184600019166000191681526020018373ffffffffffffffffffffffffffffffffffffffff1673ffffffffffffffffffffffffffffffffffffffff168152602001828103825285818151815260200191508051906020019080838360005b8381101561074d578082015181840152602081019050610732565b50505050905090810190601f16801561077a5780820380516001836020036101000a031916815260200191505b5095505050505050600060405180830381600087803b151561079b57600080fd5b6102c65a03f115156107ac57600080fd5b5050507f9e8a51bb6b34b9d5d18c14fd753ee3bf44e2256512665a4577281ffcc91943ff8660405180826000191660001916815260200191505060405180910390a1505050505050565b6107fe610fac565b60016000600260003373ffffffffffffffffffffffffffffffffffffffff1673ffffffffffffffffffffffffffffffffffffffff168152602001908152602001600020546000191660001916815260200190815260200160002060a060405190810160405290816000820154600019166000191681526020016001820160009054906101000a900460ff161515151581526020016001820160019054906101000a900460ff161515151581526020016001820160029054906101000a900460ff161515151581526020016001820160039054906101000a900460ff1615151515815250509050806040015115156108f157fe5b8173ffffffffffffffffffffffffffffffffffffffff1663f4e7732e85856040518363ffffffff167c0100000000000000000000000000000000000000000000000000000000028152600401808360001916600019168152602001826000191660001916815260200192505050600060405180830381600087803b151561097757600080fd5b6102c65a03f1151561098857600080fd5b5050507f6c6b94d1a159dc8013db508ca132e5fe164f2f60de76f2df2dcdd17a858fb59c8460405180826000191660001916815260200191505060405180910390a150505050565b6109d8610fe7565b6004805480602002602001604051908101604052809291908181526020018280548015610a2857602002820191906000526020600020905b81546000191681526020019060010190808311610a10575b5050505050905090565b6000600260008373ffffffffffffffffffffffffffffffffffffffff1673ffffffffffffffffffffffffffffffffffffffff168152602001908152602001600020549050919050565b600080600080610a89610fac565b60016000876000191660001916815260200190815260200160002060a060405190810160405290816000820154600019166000191681526020016001820160009054906101000a900460ff161515151581526020016001820160019054906101000a900460ff161515151581526020016001820160029054906101000a900460ff161515151581526020016001820160039054906101000a900460ff161515151581525050905080602001518160400151826060015183608001519450945094509450509193509193565b6000809054906101000a900473ffffffffffffffffffffffffffffffffffffffff1681565b6000809054906101000a900473ffffffffffffffffffffffffffffffffffffffff1673ffffffffffffffffffffffffffffffffffffffff163373ffffffffffffffffffffffffffffffffffffffff16141515610bd457600080fd5b7f41ae852bd4986bdb048f0e9fe3e32c8d368d22693a4853f4bb5d6eb35f563f7a8560405180826000191660001916815260200191505060405180910390a160a060405190810160405280866000191681526020018515158152602001841515815260200183151581526020018215158152506001600087600019166000191681526020019081526020016000206000820151816000019060001916905560208201518160010160006101000a81548160ff02191690831515021790555060408201518160010160016101000a81548160ff02191690831515021790555060608201518160010160026101000a81548160ff02191690831515021790555060808201518160010160036101000a81548160ff0219169083151502179055509050505050505050565b610d04610fac565b60016000600260003373ffffffffffffffffffffffffffffffffffffffff1673ffffffffffffffffffffffffffffffffffffffff168152602001908152602001600020546000191660001916815260200190815260200160002060a060405190810160405290816000820154600019166000191681526020016001820160009054906101000a900460ff161515151581526020016001820160019054906101000a900460ff161515151581526020016001820160029054906101000a900460ff161515151581526020016001820160039054906101000a900460ff161515151581525050905080602001511515610df757fe5b600060036000846000191660001916815260200190815260200160002060009054906101000a900473ffffffffffffffffffffffffffffffffffffffff1673ffffffffffffffffffffffffffffffffffffffff16141515610e5457fe5b610e5c610ffb565b604051809103906000f0801515610e7257600080fd5b60036000846000191660001916815260200190815260200160002060006101000a81548173ffffffffffffffffffffffffffffffffffffffff021916908373ffffffffffffffffffffffffffffffffffffffff16021790555060048054806001018281610edf919061100b565b9160005260206000209001600084909190915090600019169055507fb44ddc79a618771001d13f790d0f14629f9fd9b3230f1d8d52c2eaf0ce0e739d8260036000856000191660001916815260200190815260200160002060009054906101000a900473ffffffffffffffffffffffffffffffffffffffff166040518083600019166000191681526020018273ffffffffffffffffffffffffffffffffffffffff1673ffffffffffffffffffffffffffffffffffffffff1681526020019250505060405180910390a15050565b60a060405190810160405280600080191681526020016000151581526020016000151581526020016000151581526020016000151581525090565b602060405190810160405280600081525090565b604051610b008061105d83390190565b815481835581811511611032578183600052602060002091820191016110319190611037565b5b505050565b61105991905b8082111561105557600081600090555060010161103d565b5090565b9056006060604052341561000f57600080fd5b336000806101000a81548173ffffffffffffffffffffffffffffffffffffffff021916908373ffffffffffffffffffffffffffffffffffffffff160217905550610aa28061005e6000396000f300606060405260043610610099576000357c0100000000000000000000000000000000000000000000000000000000900463ffffffff16806323bd4d7a1461009e578063273040c1146100f357806347885781146101895780636cf2678a1461028f5780637f698e92146102db578063995d9ab71461031e578063cc5b0a1514610388578063f491a84c14610404578063f4e7732e14610447575b600080fd5b34156100a957600080fd5b6100b161047b565b604051808273ffffffffffffffffffffffffffffffffffffffff1673ffffffffffffffffffffffffffffffffffffffff16815260200191505060405180910390f35b34156100fe57600080fd5b61018760048080356000191690602001909190803590602001908201803590602001908080601f016020809104026020016040519081016040528093929190818152602001838380828437820191505050505050919080356000191690602001909190803573ffffffffffffffffffffffffffffffffffffffff169060200190919050506104a0565b005b341561019457600080fd5b6101ae6004808035600019169060200190919050506106a3565b604051808560001916600019168152602001806020018473ffffffffffffffffffffffffffffffffffffffff1673ffffffffffffffffffffffffffffffffffffffff16815260200183815260200182810382528581815460018160011615610100020316600290048152602001915080546001816001161561010002031660029004801561027d5780601f106102525761010080835404028352916020019161027d565b820191906000526020600020905b81548152906001019060200180831161026057829003601f168201915b50509550505050505060405180910390f35b341561029a57600080fd5b6102bd6004808035600019169060200190919080359060200190919050506106f2565b60405180826000191660001916815260200191505060405180910390f35b34156102e657600080fd5b610300600480803560001916906020019091905050610723565b60405180826000191660001916815260200191505060405180910390f35b341561032957600080fd5b610331610748565b6040518080602001828103825283818151815260200191508051906020019060200280838360005b83811015610374578082015181840152602081019050610359565b505050509050019250505060405180910390f35b341561039357600080fd5b6103ad6004808035600019169060200190919050506107aa565b6040518080602001828103825283818151815260200191508051906020019060200280838360005b838110156103f05780820151818401526020810190506103d5565b505050509050019250505060405180910390f35b341561040f57600080fd5b610429600480803560001916906020019091905050610827565b60405180826000191660001916815260200191505060405180910390f35b341561045257600080fd5b6104796004808035600019169060200190919080356000191690602001909190505061083f565b005b6000809054906101000a900473ffffffffffffffffffffffffffffffffffffffff1681565b60008060009054906101000a900473ffffffffffffffffffffffffffffffffffffffff1673ffffffffffffffffffffffffffffffffffffffff163373ffffffffffffffffffffffffffffffffffffffff161415156104fd57600080fd5b600090505b6001600084600019166000191681526020019081526020016000208054905081101561057c5784600019166001600085600019166000191681526020019081526020016000208281548110151561055557fe5b906000526020600020900154600019161415151561056f57fe5b8080600101915050610502565b60016000846000191660001916815260200190815260200160002080548060010182816105a9919061096c565b916000526020600020900160008790919091509060001916905550608060405190810160405280866000191681526020018581526020018373ffffffffffffffffffffffffffffffffffffffff16815260200142815250600260008760001916600019168152602001908152602001600020600082015181600001906000191690556020820151816001019080519060200190610647929190610998565b5060408201518160020160006101000a81548173ffffffffffffffffffffffffffffffffffffffff021916908373ffffffffffffffffffffffffffffffffffffffff160217905550606082015181600301559050505050505050565b600260205280600052604060002060009150905080600001549080600101908060020160009054906101000a900473ffffffffffffffffffffffffffffffffffffffff16908060030154905084565b60016020528160005260406000208181548110151561070d57fe5b9060005260206000209001600091509150505481565b6000600360008360001916600019168152602001908152602001600020549050919050565b610750610a18565b60048054806020026020016040519081016040528092919081815260200182805480156107a057602002820191906000526020600020905b81546000191681526020019060010190808311610788575b5050505050905090565b6107b2610a18565b60016000836000191660001916815260200190815260200160002080548060200260200160405190810160405280929190818152602001828054801561081b57602002820191906000526020600020905b81546000191681526020019060010190808311610803575b50505050509050919050565b60036020528060005260406000206000915090505481565b60008060009054906101000a900473ffffffffffffffffffffffffffffffffffffffff1673ffffffffffffffffffffffffffffffffffffffff163373ffffffffffffffffffffffffffffffffffffffff1614151561089c57600080fd5b600060026000846000191660001916815260200190815260200160002060030154141515156108c757fe5b600090505b6004805490508110156109145782600019166004828154811015156108ed57fe5b906000526020600020900154600019161415151561090757fe5b80806001019150506108cc565b8160036000856000191660001916815260200190815260200160002081600019169055506004805480600101828161094c919061096c565b916000526020600020900160008590919091509060001916905550505050565b815481835581811511610993578183600052602060002091820191016109929190610a2c565b5b505050565b828054600181600116156101000203166002900490600052602060002090601f016020900481019282601f106109d957805160ff1916838001178555610a07565b82800160010185558215610a07579182015b82811115610a065782518255916020019190600101906109eb565b5b509050610a149190610a51565b5090565b602060405190810160405280600081525090565b610a4e91905b80821115610a4a576000816000905550600101610a32565b5090565b90565b610a7391905b80821115610a6f576000816000905550600101610a57565b5090565b905600a165627a7a7230582052a09051b88d9117f27a7796342cd38cf674eb6f615f03778d8a09eace69a62c0029a165627a7a72305820cd8e809a062488c6a51f34d1c173032243651d004e5f12a00083acc3403da8e40029",
  "source": "pragma solidity ^0.4.12;\n\nimport \"./Repository.sol\";\n\ncontract Organization {\n    // ----------------------------------------------\n    // ----------------- Events ---------------------\n    // ----------------------------------------------\n    event RoleCreated(bytes32 name);\n    event RepoCreated(bytes32 name, address repoAddress);\n    event Commit(bytes32 commitHashe);\n    event Release(bytes32 tag);\n\n    // ----------------------------------------------\n    // ---------------- Globals ---------------------\n    // ----------------------------------------------\n\n    address public owner;\n\n    // Permissions role\n    struct Role {\n        bytes32 name;\n        bool create;\n        bool release;\n        bool commit;\n        bool merge;\n    }\n\n    // Available roles in the system\n    mapping(bytes32 => Role) roles;\n    // Assigned roles to the members\n    mapping(address => bytes32) members;\n    \n    // Repo tracking\n    mapping(bytes32 => address) repos;\n    bytes32[] repoNames;\n\n    modifier onlyOwner {\n        require(msg.sender == owner);\n        _;\n    }\n\n    function Organization () public {\n        owner = msg.sender;\n    }\n\n    // ----------------------------------------------   \n    // ------------ Getter Functions ----------------\n    // ----------------------------------------------\n\n    function getMemberRole(address member) public view returns (bytes32 role) {\n        return members[member];\n    }\n\n    function getRole (bytes32 role) public view returns (bool create, bool release, bool commit, bool merge) {\n        Role memory r = roles[role];\n\n        return (\n            r.create,\n            r.release,\n            r.commit,\n            r.merge\n        );\n    }\n\n    // Get a repo address by name\n    function getRepo (bytes32 name) public view returns (address repo) {\n        return repos[name];\n    }\n\n    // Get a list of repo names\n    function listRepos () public view returns (bytes32[] names) {\n        return repoNames;\n    }\n\n    // ----------------------------------------------   \n    // ------------ Public Functions ----------------\n    // ----------------------------------------------\n\n    // Add or update a role\n    function createRole (bytes32 role, bool create, bool release, bool commit, bool merge) external onlyOwner {\n        RoleCreated(role);\n\n        roles[role] = Role({\n            name: role,\n            create: create,\n            release: release,\n            commit: commit,\n            merge: merge\n        });\n    }\n\n    // Assign a role to a user\n    function assignRole (address member, bytes32 role) external onlyOwner {\n        assert(roles[role].name != 0x0);\n\n        members[member] = role;\n    }\n\n    // Add a new repo to the org\n    function createRepo (bytes32 name) external {\n        Role memory senderRole = roles[members[msg.sender]];\n\n        assert(senderRole.create);\n        assert(repos[name] == 0x0);\n\n        repos[name] = address(new Repository());\n        repoNames.push(name);\n\n        RepoCreated(name, repos[name]);\n    }\n\n    // Make a commit (proxied through for permissions)\n    function commit (bytes32 commitHash, string ipfsHash, bytes32 repoName, bytes32 branch) public {\n        Role memory senderRole = roles[members[msg.sender]];\n        assert(senderRole.commit);\n\n        Repository repo = Repository(repos[repoName]);\n        repo.commit(commitHash, ipfsHash, branch, msg.sender);\n\n        Commit(commitHash);\n    }\n\n    // Tag a release to a specific commit hash (proxied through for permissions)\n    function tagRelease (bytes32 tag, bytes32 commitHash, address repo) public {\n        Role memory senderRole = roles[members[msg.sender]];\n\n        assert(senderRole.release);\n\n        Repository(repo).tagRelease(tag, commitHash);\n\n        Release(tag);\n    }\n}",
  "sourcePath": "/Users/leondo/Desktop/GitMesh.contracts/contracts/Organization.sol",
  "compiler": {
    "name": "solc",
    "version": "0.4.19+commit.c4cbbb05.Emscripten.clang"
  },
  "schemaVersion": "1.0.1",
  "updatedAt": "2018-02-18T08:38:17.962Z"
}