{
  "contractName": "Repo",
  "abi": [
    {
      "constant": true,
      "inputs": [],
      "name": "organization",
      "outputs": [
        {
          "name": "",
          "type": "address"
        }
      ],
      "payable": false,
      "stateMutability": "view",
      "type": "function"
    },
    {
      "constant": false,
      "inputs": [
        {
          "name": "commitHash",
          "type": "bytes32"
        },
        {
          "name": "ipfsHash",
          "type": "string"
        },
        {
          "name": "branch",
          "type": "bytes32"
        },
        {
          "name": "author",
          "type": "address"
        }
      ],
      "name": "commit",
      "outputs": [],
      "payable": false,
      "stateMutability": "nonpayable",
      "type": "function"
    },
    {
      "constant": true,
      "inputs": [
        {
          "name": "",
          "type": "bytes32"
        }
      ],
      "name": "commits",
      "outputs": [
        {
          "name": "commitHash",
          "type": "bytes32"
        },
        {
          "name": "ipfsHash",
          "type": "string"
        },
        {
          "name": "author",
          "type": "address"
        },
        {
          "name": "at",
          "type": "uint256"
        }
      ],
      "payable": false,
      "stateMutability": "view",
      "type": "function"
    },
    {
      "constant": true,
      "inputs": [
        {
          "name": "",
          "type": "bytes32"
        },
        {
          "name": "",
          "type": "uint256"
        }
      ],
      "name": "commitHashes",
      "outputs": [
        {
          "name": "",
          "type": "bytes32"
        }
      ],
      "payable": false,
      "stateMutability": "view",
      "type": "function"
    },
    {
      "constant": true,
      "inputs": [
        {
          "name": "",
          "type": "bytes32"
        }
      ],
      "name": "releases",
      "outputs": [
        {
          "name": "",
          "type": "bytes32"
        }
      ],
      "payable": false,
      "stateMutability": "view",
      "type": "function"
    },
    {
      "constant": false,
      "inputs": [
        {
          "name": "tag",
          "type": "bytes32"
        },
        {
          "name": "commitHash",
          "type": "bytes32"
        }
      ],
      "name": "tagRelease",
      "outputs": [],
      "payable": false,
      "stateMutability": "nonpayable",
      "type": "function"
    },
    {
      "inputs": [],
      "payable": false,
      "stateMutability": "nonpayable",
      "type": "constructor"
    }
  ],
  "bytecode": "0x6060604052341561000f57600080fd5b336000806101000a81548173ffffffffffffffffffffffffffffffffffffffff021916908373ffffffffffffffffffffffffffffffffffffffff1602179055506107c18061005e6000396000f300606060405260043610610078576000357c0100000000000000000000000000000000000000000000000000000000900463ffffffff16806323bd4d7a1461007d578063273040c1146100d257806347885781146101685780636cf2678a1461026e578063f491a84c146102ba578063f4e7732e146102fd575b600080fd5b341561008857600080fd5b610090610331565b604051808273ffffffffffffffffffffffffffffffffffffffff1673ffffffffffffffffffffffffffffffffffffffff16815260200191505060405180910390f35b34156100dd57600080fd5b61016660048080356000191690602001909190803590602001908201803590602001908080601f016020809104026020016040519081016040528093929190818152602001838380828437820191505050505050919080356000191690602001909190803573ffffffffffffffffffffffffffffffffffffffff16906020019091905050610356565b005b341561017357600080fd5b61018d600480803560001916906020019091905050610559565b604051808560001916600019168152602001806020018473ffffffffffffffffffffffffffffffffffffffff1673ffffffffffffffffffffffffffffffffffffffff16815260200183815260200182810382528581815460018160011615610100020316600290048152602001915080546001816001161561010002031660029004801561025c5780601f106102315761010080835404028352916020019161025c565b820191906000526020600020905b81548152906001019060200180831161023f57829003601f168201915b50509550505050505060405180910390f35b341561027957600080fd5b61029c6004808035600019169060200190919080359060200190919050506105a8565b60405180826000191660001916815260200191505060405180910390f35b34156102c557600080fd5b6102df6004808035600019169060200190919050506105d9565b60405180826000191660001916815260200191505060405180910390f35b341561030857600080fd5b61032f600480803560001916906020019091908035600019169060200190919050506105f1565b005b6000809054906101000a900473ffffffffffffffffffffffffffffffffffffffff1681565b60008060009054906101000a900473ffffffffffffffffffffffffffffffffffffffff1673ffffffffffffffffffffffffffffffffffffffff163373ffffffffffffffffffffffffffffffffffffffff161415156103b357600080fd5b600090505b600160008460001916600019168152602001908152602001600020805490508110156104325784600019166001600085600019166000191681526020019081526020016000208281548110151561040b57fe5b906000526020600020900154600019161415151561042557fe5b80806001019150506103b8565b600160008460001916600019168152602001908152602001600020805480600101828161045f919061069f565b916000526020600020900160008790919091509060001916905550608060405190810160405280866000191681526020018581526020018373ffffffffffffffffffffffffffffffffffffffff168152602001428152506002600087600019166000191681526020019081526020016000206000820151816000019060001916905560208201518160010190805190602001906104fd9291906106cb565b5060408201518160020160006101000a81548173ffffffffffffffffffffffffffffffffffffffff021916908373ffffffffffffffffffffffffffffffffffffffff160217905550606082015181600301559050505050505050565b600260205280600052604060002060009150905080600001549080600101908060020160009054906101000a900473ffffffffffffffffffffffffffffffffffffffff16908060030154905084565b6001602052816000526040600020818154811015156105c357fe5b9060005260206000209001600091509150505481565b60036020528060005260406000206000915090505481565b6000809054906101000a900473ffffffffffffffffffffffffffffffffffffffff1673ffffffffffffffffffffffffffffffffffffffff163373ffffffffffffffffffffffffffffffffffffffff1614151561064c57600080fd5b6000600260008360001916600019168152602001908152602001600020600301541415151561067757fe5b8060036000846000191660001916815260200190815260200160002081600019169055505050565b8154818355818115116106c6578183600052602060002091820191016106c5919061074b565b5b505050565b828054600181600116156101000203166002900490600052602060002090601f016020900481019282601f1061070c57805160ff191683800117855561073a565b8280016001018555821561073a579182015b8281111561073957825182559160200191906001019061071e565b5b5090506107479190610770565b5090565b61076d91905b80821115610769576000816000905550600101610751565b5090565b90565b61079291905b8082111561078e576000816000905550600101610776565b5090565b905600a165627a7a72305820f9c9cdec4885956e371c8d1068f472efaedea8f38514a27dc81d54d829f64ee10029",
  "source": "pragma solidity ^0.4.12;\n\ncontract Repo {\n    address public organization;\n\n    struct Commit {\n        bytes32 commitHash;\n        string ipfsHash;\n        address author;\n        uint at;\n    }\n\n    mapping(bytes32 => bytes32[]) public commitHashes;\n    mapping(bytes32 => Commit) public commits;\n    mapping(bytes32 => bytes32) public releases;\n\n    modifier onlyOrg {\n        require(msg.sender == organization);\n        _;\n    }\n\n    function Repo () public {\n        organization = msg.sender;\n    }\n\n    // Tag a release to a specific commit hash\n    function tagRelease (bytes32 tag, bytes32 commitHash) public onlyOrg {\n        // Ensure this commit exists somewhere\n        assert(commits[commitHash].at != 0x0);\n        releases[tag] = commitHash;\n    }\n\n    // Make a commit\n    function commit (bytes32 commitHash, string ipfsHash, bytes32 branch, address author) public onlyOrg {\n        // make sure this branch does not already have a commit by this hash\n        for (uint i = 0; i < commitHashes[branch].length; i++) {\n            assert(commitHashes[branch][i] != commitHash);\n        }\n\n        commitHashes[branch].push(commitHash);\n        commits[commitHash] = Commit({\n            commitHash: commitHash,\n            ipfsHash: ipfsHash,\n            author: author,\n            at: now\n        });\n    }\n}",
  "sourcePath": "/Users/matt/Documents/ETHDenver/GitMesh.contracts/contracts/Repo.sol",
  "compiler": {
    "name": "solc",
    "version": "0.4.18+commit.9cf6e910.Emscripten.clang"
  },
  "schemaVersion": "1.0.1",
  "updatedAt": "2018-02-17T06:26:27.410Z"
}