{
  "contractName": "Repository",
  "abi": [
    {
      "constant": true,
      "inputs": [],
      "name": "organization",
      "outputs": [
        {
          "name": "",
          "type": "address"
        }
      ],
      "payable": false,
      "stateMutability": "view",
      "type": "function"
    },
    {
      "constant": true,
      "inputs": [
        {
          "name": "",
          "type": "bytes32"
        }
      ],
      "name": "commits",
      "outputs": [
        {
          "name": "commitHash",
          "type": "bytes32"
        },
        {
          "name": "ipfsHash",
          "type": "string"
        },
        {
          "name": "author",
          "type": "address"
        },
        {
          "name": "at",
          "type": "uint256"
        }
      ],
      "payable": false,
      "stateMutability": "view",
      "type": "function"
    },
    {
      "constant": true,
      "inputs": [
        {
          "name": "",
          "type": "bytes32"
        },
        {
          "name": "",
          "type": "uint256"
        }
      ],
      "name": "commitHashes",
      "outputs": [
        {
          "name": "",
          "type": "bytes32"
        }
      ],
      "payable": false,
      "stateMutability": "view",
      "type": "function"
    },
    {
      "constant": true,
      "inputs": [
        {
          "name": "",
          "type": "bytes32"
        }
      ],
      "name": "releases",
      "outputs": [
        {
          "name": "",
          "type": "bytes32"
        }
      ],
      "payable": false,
      "stateMutability": "view",
      "type": "function"
    },
    {
      "inputs": [],
      "payable": false,
      "stateMutability": "nonpayable",
      "type": "constructor"
    },
    {
      "constant": true,
      "inputs": [],
      "name": "getTags",
      "outputs": [
        {
          "name": "_tags",
          "type": "bytes32[]"
        }
      ],
      "payable": false,
      "stateMutability": "view",
      "type": "function"
    },
    {
      "constant": true,
      "inputs": [
        {
          "name": "tag",
          "type": "bytes32"
        }
      ],
      "name": "getRelease",
      "outputs": [
        {
          "name": "commitHash",
          "type": "bytes32"
        }
      ],
      "payable": false,
      "stateMutability": "view",
      "type": "function"
    },
    {
      "constant": true,
      "inputs": [
        {
          "name": "branch",
          "type": "bytes32"
        }
      ],
      "name": "getCommitHashes",
      "outputs": [
        {
          "name": "_commitHashes",
          "type": "bytes32[]"
        }
      ],
      "payable": false,
      "stateMutability": "view",
      "type": "function"
    },
    {
      "constant": false,
      "inputs": [
        {
          "name": "tag",
          "type": "bytes32"
        },
        {
          "name": "commitHash",
          "type": "bytes32"
        }
      ],
      "name": "tagRelease",
      "outputs": [],
      "payable": false,
      "stateMutability": "nonpayable",
      "type": "function"
    },
    {
      "constant": false,
      "inputs": [
        {
          "name": "commitHash",
          "type": "bytes32"
        },
        {
          "name": "ipfsHash",
          "type": "string"
        },
        {
          "name": "branch",
          "type": "bytes32"
        },
        {
          "name": "author",
          "type": "address"
        }
      ],
      "name": "commit",
      "outputs": [],
      "payable": false,
      "stateMutability": "nonpayable",
      "type": "function"
    }
  ],
  "bytecode": "0x6060604052341561000f57600080fd5b336000806101000a81548173ffffffffffffffffffffffffffffffffffffffff021916908373ffffffffffffffffffffffffffffffffffffffff160217905550610a208061005e6000396000f300606060405260043610610099576000357c0100000000000000000000000000000000000000000000000000000000900463ffffffff16806323bd4d7a1461009e578063273040c1146100f357806347885781146101895780636cf2678a1461028f5780637f698e92146102db578063995d9ab71461031e578063cc5b0a1514610388578063f491a84c14610404578063f4e7732e14610447575b600080fd5b34156100a957600080fd5b6100b161047b565b604051808273ffffffffffffffffffffffffffffffffffffffff1673ffffffffffffffffffffffffffffffffffffffff16815260200191505060405180910390f35b34156100fe57600080fd5b61018760048080356000191690602001909190803590602001908201803590602001908080601f016020809104026020016040519081016040528093929190818152602001838380828437820191505050505050919080356000191690602001909190803573ffffffffffffffffffffffffffffffffffffffff169060200190919050506104a0565b005b341561019457600080fd5b6101ae600480803560001916906020019091905050610621565b604051808560001916600019168152602001806020018473ffffffffffffffffffffffffffffffffffffffff1673ffffffffffffffffffffffffffffffffffffffff16815260200183815260200182810382528581815460018160011615610100020316600290048152602001915080546001816001161561010002031660029004801561027d5780601f106102525761010080835404028352916020019161027d565b820191906000526020600020905b81548152906001019060200180831161026057829003601f168201915b50509550505050505060405180910390f35b341561029a57600080fd5b6102bd600480803560001916906020019091908035906020019091905050610670565b60405180826000191660001916815260200191505060405180910390f35b34156102e657600080fd5b6103006004808035600019169060200190919050506106a1565b60405180826000191660001916815260200191505060405180910390f35b341561032957600080fd5b6103316106c6565b6040518080602001828103825283818151815260200191508051906020019060200280838360005b83811015610374578082015181840152602081019050610359565b505050509050019250505060405180910390f35b341561039357600080fd5b6103ad600480803560001916906020019091905050610728565b6040518080602001828103825283818151815260200191508051906020019060200280838360005b838110156103f05780820151818401526020810190506103d5565b505050509050019250505060405180910390f35b341561040f57600080fd5b6104296004808035600019169060200190919050506107a5565b60405180826000191660001916815260200191505060405180910390f35b341561045257600080fd5b610479600480803560001916906020019091908035600019169060200190919050506107bd565b005b6000809054906101000a900473ffffffffffffffffffffffffffffffffffffffff1681565b6000809054906101000a900473ffffffffffffffffffffffffffffffffffffffff1673ffffffffffffffffffffffffffffffffffffffff163373ffffffffffffffffffffffffffffffffffffffff161415156104fb57600080fd5b600160008360001916600019168152602001908152602001600020805480600101828161052891906108ea565b916000526020600020900160008690919091509060001916905550608060405190810160405280856000191681526020018481526020018273ffffffffffffffffffffffffffffffffffffffff168152602001428152506002600086600019166000191681526020019081526020016000206000820151816000019060001916905560208201518160010190805190602001906105c6929190610916565b5060408201518160020160006101000a81548173ffffffffffffffffffffffffffffffffffffffff021916908373ffffffffffffffffffffffffffffffffffffffff1602179055506060820151816003015590505050505050565b600260205280600052604060002060009150905080600001549080600101908060020160009054906101000a900473ffffffffffffffffffffffffffffffffffffffff16908060030154905084565b60016020528160005260406000208181548110151561068b57fe5b9060005260206000209001600091509150505481565b6000600360008360001916600019168152602001908152602001600020549050919050565b6106ce610996565b600480548060200260200160405190810160405280929190818152602001828054801561071e57602002820191906000526020600020905b81546000191681526020019060010190808311610706575b5050505050905090565b610730610996565b60016000836000191660001916815260200190815260200160002080548060200260200160405190810160405280929190818152602001828054801561079957602002820191906000526020600020905b81546000191681526020019060010190808311610781575b50505050509050919050565b60036020528060005260406000206000915090505481565b60008060009054906101000a900473ffffffffffffffffffffffffffffffffffffffff1673ffffffffffffffffffffffffffffffffffffffff163373ffffffffffffffffffffffffffffffffffffffff1614151561081a57600080fd5b6000600260008460001916600019168152602001908152602001600020600301541415151561084557fe5b600090505b60048054905081101561089257826000191660048281548110151561086b57fe5b906000526020600020900154600019161415151561088557fe5b808060010191505061084a565b816003600085600019166000191681526020019081526020016000208160001916905550600480548060010182816108ca91906108ea565b916000526020600020900160008590919091509060001916905550505050565b8154818355818115116109115781836000526020600020918201910161091091906109aa565b5b505050565b828054600181600116156101000203166002900490600052602060002090601f016020900481019282601f1061095757805160ff1916838001178555610985565b82800160010185558215610985579182015b82811115610984578251825591602001919060010190610969565b5b50905061099291906109cf565b5090565b602060405190810160405280600081525090565b6109cc91905b808211156109c85760008160009055506001016109b0565b5090565b90565b6109f191905b808211156109ed5760008160009055506001016109d5565b5090565b905600a165627a7a72305820cab3aee3819310a9544cdb2f137565cd3875061af098e07eb9c895392916065c0029",
  "source": "pragma solidity ^0.4.12;\n\ncontract Repository {\n    address public organization;\n\n    struct Commit {\n        bytes32 commitHash;\n        string ipfsHash;\n        address author;\n        uint at;\n    }\n\n    mapping(bytes32 => bytes32[]) public commitHashes;\n    mapping(bytes32 => Commit) public commits;\n    mapping(bytes32 => bytes32) public releases;\n    bytes32[] tags;\n\n    modifier onlyOrg {\n        require(msg.sender == organization);\n        _;\n    }\n\n    function Repository () public {\n        organization = msg.sender;\n    }\n\n    // Return tagged releases\n    function getTags () public view returns (bytes32[] _tags) {\n        return tags;\n    }\n\n    // Get a release by tag\n    function getRelease (bytes32 tag) public view returns (bytes32 commitHash) {\n        return releases[tag];\n    }\n\n    // Get commit hashes from branch\n    function getCommitHashes (bytes32 branch) public view returns (bytes32[] _commitHashes) {\n        return commitHashes[branch];\n    }\n\n    // Tag a release to a specific commit hash\n    function tagRelease (bytes32 tag, bytes32 commitHash) public onlyOrg {\n        // Ensure this commit exists somewhere\n        assert(commits[commitHash].at != 0x0);\n        for (uint i = 0; i < tags.length; i++) {\n            assert(tags[i] != tag);\n        }\n        releases[tag] = commitHash;\n        tags.push(tag);\n    }\n\n    // Make a commit\n    function commit (bytes32 commitHash, string ipfsHash, bytes32 branch, address author) public onlyOrg {\n        // make sure this branch does not already have a commit by this hash\n        // for (uint i = 0; i < commitHashes[branch].length; i++) {\n            // assert(commitHashes[branch][i] != commitHash);\n        // }\n\n        commitHashes[branch].push(commitHash);\n        commits[commitHash] = Commit({\n            commitHash: commitHash,\n            ipfsHash: ipfsHash,\n            author: author,\n            at: now\n        });\n    }\n}\n",
  "sourcePath": "/Users/ngmiller/code/ethdenver/GitMesh.contracts/contracts/Repository.sol",
  "compiler": {
    "name": "solc",
    "version": "0.4.19+commit.c4cbbb05.Emscripten.clang"
  },
  "schemaVersion": "1.0.1",
  "updatedAt": "2018-02-18T15:42:37.549Z"
}